{
  "_format": "hh-sol-artifact-1",
  "contractName": "gasChallenge",
  "sourceName": "contracts/gasChallenge.sol",
  "abi": [
    {
      "inputs": [],
      "name": "getSumOfArray",
      "outputs": [
        {
          "internalType": "uint256",
          "name": "",
          "type": "uint256"
        }
      ],
      "stateMutability": "view",
      "type": "function"
    },
    {
      "inputs": [],
      "name": "notOptimizedFunction",
      "outputs": [],
      "stateMutability": "nonpayable",
      "type": "function"
    },
    {
      "inputs": [],
      "name": "optimizedFunction",
      "outputs": [],
      "stateMutability": "nonpayable",
      "type": "function"
    }
  ],
  "bytecode": "0x6080604052604051806101400160405280600160ff168152602001600260ff168152602001600360ff168152602001600460ff168152602001600560ff168152602001600660ff168152602001600760ff168152602001600860ff168152602001600960ff168152602001600a60ff16815250600090600a610082929190610095565b5034801561008f57600080fd5b506100f7565b82600a81019282156100c9579160200282015b828111156100c8578251829060ff169055916020019190600101906100a8565b5b5090506100d691906100da565b5090565b5b808211156100f35760008160009055506001016100db565b5090565b610280806101066000396000f3fe608060405234801561001057600080fd5b50600436106100415760003560e01c806368b5f223146100465780637ce418941461005057806380d2c8031461005a575b600080fd5b61004e610078565b005b6100586100b2565b005b6100626100ec565b60405161006f9190610155565b60405180910390f35b6000600a905060005b818110156100ae5760008082600a811061009e5761009d610170565b5b0181905550806001019050610081565b5050565b60005b600a8110156100e95760008082600a81106100d3576100d2610170565b5b0181905550806100e2906101ce565b90506100b5565b50565b600080600a90506000805b8281101561013357600081600a811061011357610112610170565b5b0154826101209190610216565b91508061012c906101ce565b90506100f7565b50809250505090565b6000819050919050565b61014f8161013c565b82525050565b600060208201905061016a6000830184610146565b92915050565b7f4e487b7100000000000000000000000000000000000000000000000000000000600052603260045260246000fd5b7f4e487b7100000000000000000000000000000000000000000000000000000000600052601160045260246000fd5b60006101d98261013c565b91507fffffffffffffffffffffffffffffffffffffffffffffffffffffffffffffffff820361020b5761020a61019f565b5b600182019050919050565b60006102218261013c565b915061022c8361013c565b92508282019050808211156102445761024361019f565b5b9291505056fea26469706673582212206d6a75fd1fade92d565a11e2d2dfe38278152df84ba38f140eb67637e461be9e64736f6c63430008120033",
  "linkReferences": {},
  "deployedLinkReferences": {}
}